:020000040800F2
:1000000038050020290200083702000839020008DC
:100010003B0200083D0200083F020008000000000B
:100020000000000000000000000000004102000885
:1000300043020008000000004502000847020008D3
:100040004902000849020008490200084902000864
:100050004902000849020008490200084902000854
:100060004902000849020008490200084902000844
:100070004902000849020008490200084902000834
:100080004902000849020008490200084902000824
:100090004902000849020008490200084902000814
:1000A0004902000849020008490200084902000804
:1000B00049020008490200084902000849020008F4
:1000C00049020008490200084902000849020008E4
:1000D00049020008C5030008490200084902000857
:1000E00049020008490200084902000849020008C4
:1000F00049020008490200084902000849020008B4
:1001000049020008490200084902000849020008A3
:100110004902000849020008490200084902000893
:100120004902000849020008490200084902000883
:100130004902000849020008490200084902000873
:100140004902000849020008490200084902000863
:100150004902000849020008490200084902000853
:100160004902000849020008490200084902000843
:100170004902000849020008490200084902000833
:10018000490200084902000800F002F800F03CF8BB
:100190000AA090E8000C82448344AAF10107DA45E2
:1001A00001D100F031F8AFF2090EBAE80F0013F0F8
:1001B000010F18BFFB1A43F0010318479C0300000E
:1001C000BC030000103A24BF78C878C1FAD852079F
:1001D00024BF30C830C144BF04680C6070470000C1
:1001E0000023002400250026103A28BF78C1FBD840
:1001F000520728BF30C148BF0B6070471FB500F0E1
:10020000A5F91FBD10B510BD00F035F81146FFF778
:10021000F5FF00F075F900F053F803B4FFF7F2FFB3
:1002200003BC00F00FF900000B48016841F47001B5
:1002300001600A480047FEE7FEE7FEE7FEE7FEE74B
:10024000FEE7FEE7FEE7FEE7FEE70000044805499B
:10025000034A054B7047000088ED00E08901000863
:100260003801002038050020380100207047704711
:10027000704770477047754600F028F8AE46050095
:100280006946534620F00700854618B020B5FFF7B1
:10029000DDFFBDE820404FF000064FF000074FF0B3
:1002A00000084FF0000B21F00701AC46ACE8C00994
:1002B000ACE8C009ACE8C009ACE8C0098D4670479D
:1002C0000446AFF300802046FFF7A7FF00487047C1
:1002D000D40000203948006840F020003749086009
:1002E0003748006820F44020354908600846006817
:1002F00040F48020086032480830006820F4402034
:100300002F49083108600846006840F40020086062
:10031000081D006820F44020091D08600846006898
:1003200040F4802008602648001D006820F400701A
:100330002349091D086008460068086020481430F9
:10034000006840F400701E49143108601C480068C1
:1003500020F440101A4908600846006840F48010F4
:10036000086017480830006820F44010144908312C
:1003700008600846006840F400100860081D006826
:1003800020F44010091D08600846006840F4801001
:1003900008600B48001D006820F480600849091DB2
:1003A000086008460068086005481430006840F49A
:1003B0008060034914310860704700003038024003
:1003C000001402401C49098801F0200109B31A49B0
:1003D0008988C8B21949098801F40041C9B9174987
:1003E000098801F4804161B10A2803D00021134A31
:1003F000118020E01149098841F400410F4A118021
:1004000019E00D2806D10D49098841F480410B4AB5
:10041000118010E009490988C1F30D01084A5054C0
:1004200006490988491C054A118011460988C729CF
:1004300001DD0021118070470010014008000020FC
:100440000C000020014600BF704700004FF0E02183
:10045000096921F004014FF0E0221161C21700EB9D
:100460005272C2F3C702074B1A701946097801EBA2
:100470004102C2EBC1114FF6FF7202EAC101024A0A
:1004800011807047000000200200002070B5044673
:100490004FF4077094FBF0F0C6B24FF4077094FB72
:1004A000F0F100FB114085B205E04FF4077000F059
:1004B00009F8701EC6B2002EF7D115B1284600F01B
:1004C00001F870BD01460D4A12884A434FF0E023FF
:1004D0005A6100229A6101221A6100BF4FF0E022A6
:1004E000106900F001021AB100F48032002AF5D040
:1004F00000224FF0E0231A619A6170470200002049
:10050000A820FFF7A3FFFFF7E5FE1BE00E480068F9
:1005100040F400700C4908600846006840F48060B0
:1005200008606420FFF7B2FF0748006820F40070FD
:10053000054908600846006820F48060086064206F
:10054000FFF7A4FFE2E70000141402404FF04070F0
:10055000E1EE100A70470000780500080000002056
:100560000C000000C4010008840500080C000020F5
:100570002C050000E0010008000000000000000061
:040580000000000077
:040000050800018965
:00000001FF
